{
  "contractName": "InvestmentLiquidityPool",
  "abi": [
    {
      "constant": true,
      "inputs": [],
      "name": "duration",
      "outputs": [
        {
          "name": "",
          "type": "uint256"
        }
      ],
      "payable": false,
      "stateMutability": "view",
      "type": "function",
      "signature": "0x0fb5a6b4"
    },
    {
      "constant": true,
      "inputs": [
        {
          "name": "",
          "type": "address"
        }
      ],
      "name": "subscriptorIndex",
      "outputs": [
        {
          "name": "",
          "type": "uint256"
        }
      ],
      "payable": false,
      "stateMutability": "view",
      "type": "function",
      "signature": "0x2eb81a08"
    },
    {
      "constant": true,
      "inputs": [
        {
          "name": "",
          "type": "uint256"
        }
      ],
      "name": "subscriptors",
      "outputs": [
        {
          "name": "",
          "type": "address"
        }
      ],
      "payable": false,
      "stateMutability": "view",
      "type": "function",
      "signature": "0x3c2fee93"
    },
    {
      "constant": true,
      "inputs": [],
      "name": "minCap",
      "outputs": [
        {
          "name": "",
          "type": "uint256"
        }
      ],
      "payable": false,
      "stateMutability": "view",
      "type": "function",
      "signature": "0x3fa615b0"
    },
    {
      "constant": true,
      "inputs": [],
      "name": "liquidityPercentage",
      "outputs": [
        {
          "name": "",
          "type": "uint256"
        }
      ],
      "payable": false,
      "stateMutability": "view",
      "type": "function",
      "signature": "0x41d1f5be"
    },
    {
      "constant": true,
      "inputs": [],
      "name": "liquidityToken",
      "outputs": [
        {
          "name": "",
          "type": "address"
        }
      ],
      "payable": false,
      "stateMutability": "view",
      "type": "function",
      "signature": "0x43cd8f7e"
    },
    {
      "constant": true,
      "inputs": [],
      "name": "subscriptorsLimit",
      "outputs": [
        {
          "name": "",
          "type": "uint256"
        }
      ],
      "payable": false,
      "stateMutability": "view",
      "type": "function",
      "signature": "0x6699fec3"
    },
    {
      "constant": true,
      "inputs": [],
      "name": "mpr",
      "outputs": [
        {
          "name": "",
          "type": "uint256"
        }
      ],
      "payable": false,
      "stateMutability": "view",
      "type": "function",
      "signature": "0x66ad25be"
    },
    {
      "constant": true,
      "inputs": [],
      "name": "ltv",
      "outputs": [
        {
          "name": "",
          "type": "uint256"
        }
      ],
      "payable": false,
      "stateMutability": "view",
      "type": "function",
      "signature": "0x6fb49d73"
    },
    {
      "constant": true,
      "inputs": [
        {
          "name": "",
          "type": "address"
        }
      ],
      "name": "subscriptionAmount",
      "outputs": [
        {
          "name": "",
          "type": "uint256"
        }
      ],
      "payable": false,
      "stateMutability": "view",
      "type": "function",
      "signature": "0x7a2e44e5"
    },
    {
      "constant": true,
      "inputs": [],
      "name": "feePercentage",
      "outputs": [
        {
          "name": "",
          "type": "uint256"
        }
      ],
      "payable": false,
      "stateMutability": "view",
      "type": "function",
      "signature": "0xa001ecdd"
    },
    {
      "constant": true,
      "inputs": [],
      "name": "broker",
      "outputs": [
        {
          "name": "",
          "type": "address"
        }
      ],
      "payable": false,
      "stateMutability": "view",
      "type": "function",
      "signature": "0xabff0110"
    },
    {
      "constant": true,
      "inputs": [
        {
          "name": "",
          "type": "address"
        }
      ],
      "name": "subscriptionMoment",
      "outputs": [
        {
          "name": "",
          "type": "uint256"
        }
      ],
      "payable": false,
      "stateMutability": "view",
      "type": "function",
      "signature": "0xdc90ef98"
    },
    {
      "constant": true,
      "inputs": [],
      "name": "theoreticalPoolBalance",
      "outputs": [
        {
          "name": "",
          "type": "uint256"
        }
      ],
      "payable": false,
      "stateMutability": "view",
      "type": "function",
      "signature": "0xe7b18aa8"
    },
    {
      "inputs": [
        {
          "name": "_liquidityPercentage",
          "type": "uint256"
        },
        {
          "name": "_feePercentage",
          "type": "uint256"
        },
        {
          "name": "_subscriptorsLimit",
          "type": "uint256"
        },
        {
          "name": "_minCap",
          "type": "uint256"
        },
        {
          "name": "_mpr",
          "type": "uint256"
        },
        {
          "name": "_ltv",
          "type": "uint256"
        },
        {
          "name": "_duration",
          "type": "uint256"
        },
        {
          "name": "_broker",
          "type": "address"
        },
        {
          "name": "_liquidityToken",
          "type": "address"
        }
      ],
      "payable": false,
      "stateMutability": "nonpayable",
      "type": "constructor",
      "signature": "constructor"
    },
    {
      "constant": false,
      "inputs": [
        {
          "name": "subscriptor",
          "type": "address"
        },
        {
          "name": "amount",
          "type": "uint256"
        }
      ],
      "name": "subscribe",
      "outputs": [],
      "payable": false,
      "stateMutability": "nonpayable",
      "type": "function",
      "signature": "0x8de69284"
    },
    {
      "constant": false,
      "inputs": [
        {
          "name": "amount",
          "type": "uint256"
        }
      ],
      "name": "withdraw",
      "outputs": [],
      "payable": false,
      "stateMutability": "nonpayable",
      "type": "function",
      "signature": "0x2e1a7d4d"
    },
    {
      "constant": true,
      "inputs": [
        {
          "name": "subscriptor",
          "type": "address"
        }
      ],
      "name": "balanceOf",
      "outputs": [
        {
          "name": "",
          "type": "uint256"
        }
      ],
      "payable": false,
      "stateMutability": "view",
      "type": "function",
      "signature": "0x70a08231"
    },
    {
      "constant": true,
      "inputs": [],
      "name": "showSubscriptors",
      "outputs": [
        {
          "name": "",
          "type": "address[]"
        }
      ],
      "payable": false,
      "stateMutability": "view",
      "type": "function",
      "signature": "0x4be42628"
    },
    {
      "constant": true,
      "inputs": [],
      "name": "poolData",
      "outputs": [
        {
          "name": "",
          "type": "uint256"
        },
        {
          "name": "",
          "type": "uint256"
        },
        {
          "name": "",
          "type": "uint256"
        },
        {
          "name": "",
          "type": "uint256"
        },
        {
          "name": "",
          "type": "uint256"
        },
        {
          "name": "",
          "type": "uint256"
        },
        {
          "name": "",
          "type": "uint256"
        },
        {
          "name": "",
          "type": "uint256"
        },
        {
          "name": "",
          "type": "uint256"
        },
        {
          "name": "",
          "type": "uint256"
        },
        {
          "name": "",
          "type": "address"
        }
      ],
      "payable": false,
      "stateMutability": "view",
      "type": "function",
      "signature": "0xfee151ae"
    }
  ],
  "bytecode": "0x60806040523480156200001157600080fd5b5060405161012080620014a383398101806040526101208110156200003557600080fd5b508051602082015160408301516060840151608085015160a086015160c087015160e08801516101009098015196979596949593949293919290919060008910801590620000835750606489105b15156200011757604080517f08c379a000000000000000000000000000000000000000000000000000000000815260206004820152602a60248201527f6c69717569646974792070657263656e746167652061742073746f636b206f7560448201527f74206f662072616e676500000000000000000000000000000000000000000000606482015290519081900360840190fd5b60008811801562000129575061271088105b15156200019757604080517f08c379a000000000000000000000000000000000000000000000000000000000815260206004820152601060248201527f666565206f7574206f662072616e676500000000000000000000000000000000604482015290519081900360640190fd5b600087118015620001a85750601587105b15156200023c57604080517f08c379a000000000000000000000000000000000000000000000000000000000815260206004820152602360248201527f6e756d626572206f66207375627363726970746f7273206f7574206f6620726160448201527f6e67650000000000000000000000000000000000000000000000000000000000606482015290519081900360840190fd5b6000851180156200024e575061271085105b1515620002e157604080517f08c379a0000000000000000000000000000000000000000000000000000000008152602060048201526024808201527f6d6f6e74686c792070657263656e746167652072617465206f7574206f66207260448201527f616e676500000000000000000000000000000000000000000000000000000000606482015290519081900360840190fd5b600084118015620002f45750620186a084105b15156200036257604080517f08c379a000000000000000000000000000000000000000000000000000000000815260206004820152601a60248201527f6c6f616e20746f2076616c7565206f7574206f662072616e6765000000000000604482015290519081900360640190fd5b60008310158015620003745750600d83105b1515620003e257604080517f08c379a000000000000000000000000000000000000000000000000000000000815260206004820152601560248201527f6475726174696f6e206f7574206f662072616e67650000000000000000000000604482015290519081900360640190fd5b600160a060020a03821615156200045a57604080517f08c379a000000000000000000000000000000000000000000000000000000000815260206004820152600e60248201527f6976616c69642061646472657373000000000000000000000000000000000000604482015290519081900360640190fd5b600160a060020a0381161515620004d257604080517f08c379a000000000000000000000000000000000000000000000000000000000815260206004820152600f60248201527f696e76616c696420616464726573730000000000000000000000000000000000604482015290519081900360640190fd5b6000988955600197909755600295909555506003929092556004556005556006805462278d0002905560088054600160a060020a03928316600160a060020a03199182161790915560098054929093169116179055610f6b9081906200053890396000f3fe6080604052600436106101065763ffffffff7c01000000000000000000000000000000000000000000000000000000006000350416630fb5a6b4811461010b5780632e1a7d4d146101325780632eb81a081461015e5780633c2fee93146101915780633fa615b0146101d757806341d1f5be146101ec57806343cd8f7e146102015780634be42628146102165780636699fec31461027b57806366ad25be146102905780636fb49d73146102a557806370a08231146102ba5780637a2e44e5146102ed5780638de6928414610320578063a001ecdd14610359578063abff01101461036e578063dc90ef9814610383578063e7b18aa8146103b6578063fee151ae146103cb575b600080fd5b34801561011757600080fd5b5061012061043f565b60408051918252519081900360200190f35b34801561013e57600080fd5b5061015c6004803603602081101561015557600080fd5b5035610445565b005b34801561016a57600080fd5b506101206004803603602081101561018157600080fd5b5035600160a060020a03166108c2565b34801561019d57600080fd5b506101bb600480360360208110156101b457600080fd5b50356108d4565b60408051600160a060020a039092168252519081900360200190f35b3480156101e357600080fd5b506101206108fc565b3480156101f857600080fd5b50610120610902565b34801561020d57600080fd5b506101bb610908565b34801561022257600080fd5b5061022b610917565b60408051602080825283518183015283519192839290830191858101910280838360005b8381101561026757818101518382015260200161024f565b505050509050019250505060405180910390f35b34801561028757600080fd5b5061012061097a565b34801561029c57600080fd5b50610120610980565b3480156102b157600080fd5b50610120610986565b3480156102c657600080fd5b50610120600480360360208110156102dd57600080fd5b5035600160a060020a031661098c565b3480156102f957600080fd5b506101206004803603602081101561031057600080fd5b5035600160a060020a03166109a7565b34801561032c57600080fd5b5061015c6004803603604081101561034357600080fd5b50600160a060020a0381351690602001356109b9565b34801561036557600080fd5b50610120610d41565b34801561037a57600080fd5b506101bb610d47565b34801561038f57600080fd5b50610120600480360360208110156103a657600080fd5b5035600160a060020a0316610d56565b3480156103c257600080fd5b50610120610d68565b3480156103d757600080fd5b506103e0610d6e565b604080519b8c5260208c019a909a528a8a019890985260608a0196909652608089019490945260a088019290925260c087015260e0860152610100850152610120840152600160a060020a031661014083015251908190036101600190f35b60065481565b61047d816104716064610465600054600754610e7990919063ffffffff16565b9063ffffffff610ead16565b9063ffffffff610ed116565b600954604080517f70a082310000000000000000000000000000000000000000000000000000000081523060048201529051600160a060020a03909216916370a0823191602480820192602092909190829003018186803b1580156104e157600080fd5b505afa1580156104f5573d6000803e3d6000fd5b505050506040513d602081101561050b57600080fd5b505111610562576040805160e560020a62461bcd02815260206004820152601660248201527f696e73756666696369656e74206c697175696469747900000000000000000000604482015290519081900360640190fd5b6000811180156105815750336000908152600b60205260409020548111155b15156105fd576040805160e560020a62461bcd02815260206004820152602160248201527f696e73756666696369656e7420737562736372697074696f6e2062616c616e6360448201527f6500000000000000000000000000000000000000000000000000000000000000606482015290519081900360840190fd5b600654336000908152600c602052604090205461061f9163ffffffff610ed116565b4211610675576040805160e560020a62461bcd02815260206004820152601160248201527f63616e206e6f7420776974686472617720000000000000000000000000000000604482015290519081900360640190fd5b600354336000908152600b602052604081205490919061069b908463ffffffff610ee316565b11156106ee576007546106b4908363ffffffff610ee316565b600755336000908152600b60205260409020546106d7908363ffffffff610ee316565b336000908152600b602052604090205550806107cf565b336000908152600b6020526040902054600754610711908263ffffffff610ee316565b600755336000908152600b6020526040812055600a8054610736826000198301610ef8565b8154811061074057fe5b6000918252602080832090910154338352600d909152604090912054600a8054600160a060020a0390931692909190811061077757fe5b6000918252602090912001805473ffffffffffffffffffffffffffffffffffffffff1916600160a060020a0392909216919091179055600a8054906107c0906000198301610ef8565b6107cb600a82610ef8565b5090505b600954604080517fa9059cbb000000000000000000000000000000000000000000000000000000008152336004820152602481018490529051600160a060020a039092169163a9059cbb916044808201926020929091908290030181600087803b15801561083c57600080fd5b505af1158015610850573d6000803e3d6000fd5b505050506040513d602081101561086657600080fd5b505115156108be576040805160e560020a62461bcd02815260206004820152600d60248201527f7472616e73666572206661696c00000000000000000000000000000000000000604482015290519081900360640190fd5b5050565b600d6020526000908152604090205481565b600a8054829081106108e257fe5b600091825260209091200154600160a060020a0316905081565b60035481565b60005481565b600954600160a060020a031681565b6060600a80548060200260200160405190810160405280929190818152602001828054801561096f57602002820191906000526020600020905b8154600160a060020a03168152600190910190602001808311610951575b505050505090505b90565b60025481565b60045481565b60055481565b600160a060020a03166000908152600b602052604090205490565b600b6020526000908152604090205481565b600954604080517fdd62ed3e000000000000000000000000000000000000000000000000000000008152600160a060020a0385811660048301523060248301529151919092169163dd62ed3e916044808301926020929190829003018186803b158015610a2557600080fd5b505afa158015610a39573d6000803e3d6000fd5b505050506040513d6020811015610a4f57600080fd5b5051811015610ace576040805160e560020a62461bcd02815260206004820152603360248201527f696e73756666696369656e7420616d6f756e74206f66206c697175646969747960448201527f20746f6b656e732061726520616c6c6f77656400000000000000000000000000606482015290519081900360840190fd5b600160a060020a0382166000908152600b60205260409020541515610ba257600254600a5410610b48576040805160e560020a62461bcd02815260206004820152601560248201527f7375627363726970746f7273206172652066756c6c0000000000000000000000604482015290519081900360640190fd5b600354811015610ba2576040805160e560020a62461bcd02815260206004820152601360248201527f696e73756666696369656e7420616d6f756e7400000000000000000000000000604482015290519081900360640190fd5b600754610bb5908263ffffffff610ed116565b600755600a8054600160a060020a0384166000818152600d60209081526040808320859055600185019095557fc65a7bb8d6351c1cf70c95a316cc6a92839c986682d98bc35f958f4883f9d2a8909301805473ffffffffffffffffffffffffffffffffffffffff1916909217909155600c8252828120429055600b9091522054610c3f9082610ed1565b600160a060020a0383166000818152600b602090815260408083209490945583517f23b872dd0000000000000000000000000000000000000000000000000000000081526004810184905230602482015260448101869052935192936323b872dd9360648083019491928390030190829087803b158015610cbf57600080fd5b505af1158015610cd3573d6000803e3d6000fd5b505050506040513d6020811015610ce957600080fd5b505115156108be576040805160e560020a62461bcd02815260206004820152601260248201527f7472616e736665722066726f6d206661696c0000000000000000000000000000604482015290519081900360640190fd5b60015481565b600854600160a060020a031681565b600c6020526000908152604090205481565b60075481565b600a54600754600954604080517f70a08231000000000000000000000000000000000000000000000000000000008152306004820152905160009485948594859485948594859485948594859485949392600160a060020a0316916370a08231916024808301926020929190829003018186803b158015610dee57600080fd5b505afa158015610e02573d6000803e3d6000fd5b505050506040513d6020811015610e1857600080fd5b810190808051906020019092919050505060005483600254600354600454600554600654600154600860009054906101000a9004600160a060020a03169b509b509b509b509b509b509b509b509b509b509b5050909192939495969798999a565b6000821515610e8a57506000610ea7565b828202828482811515610e9957fe5b0414610ea457600080fd5b90505b92915050565b6000808211610ebb57600080fd5b60008284811515610ec857fe5b04949350505050565b600082820183811015610ea457600080fd5b600082821115610ef257600080fd5b50900390565b815481835581811115610f1c57600083815260209020610f1c918101908301610f21565b505050565b61097791905b80821115610f3b5760008155600101610f27565b509056fea165627a7a72305820623a57219aad023e1ecaffa9386b7dee4e753ad7e8a160456efa08ac958a98f10029",
  "source": "pragma solidity 0.5.0;\n\nimport \"openzeppelin-solidity/contracts/math/SafeMath.sol\";\nimport \"openzeppelin-solidity/contracts/token/ERC20/IERC20.sol\";\n\n\n/**\n * @title Investment Liquidity Pool.\n * @notice Pool that gather liquidity tokens to be invest on loans by a broker.\n * @author Anibal Catalán <anibalcatalanf@gmail.com>\n */\ncontract InvestmentLiquidityPool {\n    using SafeMath for uint256;\n\n    uint256 public liquidityPercentage;\n    uint256 public feePercentage;\n    uint256 public subscriptorsLimit;\n    uint256 public minCap;\n    uint256 public mpr;\n    uint256 public ltv;\n    uint256 public duration;\n    uint256 public theoreticalPoolBalance;\n    \n    address public broker;\n    address public liquidityToken;\n    address[] public subscriptors;\n\n    mapping(address => uint256) public subscriptionAmount; //subscriptor->amount\n    mapping(address => uint256) public subscriptionMoment; //subscriptor->subscriptionTimestamp\n    mapping(address => uint256) public subscriptorIndex; // subscriptor->arrayIndex\n\n    constructor(\n        uint256 _liquidityPercentage,\n        uint256 _feePercentage,\n        uint256 _subscriptorsLimit,\n        uint256 _minCap,\n        uint256 _mpr,\n        uint256 _ltv,\n        uint256 _duration,\n        address _broker,\n        address _liquidityToken\n    ) public {\n        require(_liquidityPercentage >= 0 && _liquidityPercentage < 100, \"liquidity percentage at stock out of range\");\n        require(_feePercentage > 0 && _feePercentage < 10000, \"fee out of range\");\n        require(_subscriptorsLimit > 0 && _subscriptorsLimit < 21, \"number of subscriptors out of range\");\n        require(_mpr > 0 && _mpr < 10000, \"monthly percentage rate out of range\");\n        require(_ltv > 0 && _ltv < 100000, \"loan to value out of range\");\n        require(_duration >= 0 && _duration < 13, \"duration out of range\");\n        require(_broker != address(0), \"ivalid address\");\n        require(_liquidityToken != address(0), \"invalid address\");\n\n        liquidityPercentage = _liquidityPercentage;        \n        feePercentage = _feePercentage;\n        subscriptorsLimit = _subscriptorsLimit;\n        minCap = _minCap;\n        mpr = _mpr;\n        ltv = _ltv;\n        duration = duration * 30 days;\n\n        broker = _broker;\n        liquidityToken = _liquidityToken;\n\n    }\n    \n    function subscribe(address subscriptor, uint256 amount) public {\n        require(amount >= IERC20(liquidityToken).allowance(subscriptor, address(this)), \"insufficient amount of liqudiity tokens are allowed\");\n        \n        if (subscriptionAmount[subscriptor] == 0) {\n            require(subscriptors.length < subscriptorsLimit, \"subscriptors are full\");\n            require(amount >= minCap, \"insufficient amount\");\n        }\n        \n        theoreticalPoolBalance = theoreticalPoolBalance.add(amount);\n        subscriptorIndex[subscriptor] = subscriptors.length;\n        subscriptors.push(subscriptor);\n        subscriptionMoment[subscriptor] = now;\n        subscriptionAmount[subscriptor] = subscriptionAmount[subscriptor].add(amount);\n\n        require(IERC20(subscriptor).transferFrom(subscriptor, address(this), amount), \"transfer from fail\");\n    }\n\n    function withdraw(uint256 amount) public {\n        require(\n            IERC20(liquidityToken).balanceOf(address(this)) > \n            theoreticalPoolBalance.mul(liquidityPercentage).div(100).add(amount),\n            \"insufficient liquidity\");\n        require(amount > 0 && subscriptionAmount[msg.sender] >= amount, \"insufficient subscription balance\");\n        require(now > subscriptionMoment[msg.sender].add(duration), \"can not withdraw \");\n\n        uint256 transferAmount;\n        \n        if (subscriptionAmount[msg.sender].sub(amount) > minCap) {\n            theoreticalPoolBalance = theoreticalPoolBalance.sub(amount);\n            subscriptionAmount[msg.sender] = subscriptionAmount[msg.sender].sub(amount);\n            transferAmount = amount;  \n        } else {\n            uint256 subscriptorBalance = subscriptionAmount[msg.sender];\n            theoreticalPoolBalance = theoreticalPoolBalance.sub(subscriptorBalance);\n            subscriptionAmount[msg.sender] = 0;\n            subscriptors[subscriptorIndex[msg.sender]] = subscriptors[subscriptors.length--];\n            subscriptors.length = subscriptors.length--;\n            transferAmount = subscriptorBalance;\n        }\n\n        require(IERC20(liquidityToken).transfer(msg.sender, transferAmount), \"transfer fail\");\n    }\n\n    function balanceOf(address subscriptor) public view returns (uint256) {\n        return subscriptionAmount[subscriptor];\n    }\n\n    function showSubscriptors() public view returns(address[] memory) {\n        return subscriptors;\n    }\n\n    function poolData() public view returns (\n        uint256,\n        uint256,\n        uint256,\n        uint256,\n        uint256,\n        uint256,\n        uint256,\n        uint256,\n        uint256,\n        uint256,\n        address) \n    {\n        uint256 numOfSubscriptors = subscriptors.length;\n        return ( \n        theoreticalPoolBalance,\n        IERC20(liquidityToken).balanceOf(address(this)),\n        liquidityPercentage, \n        numOfSubscriptors,\n        subscriptorsLimit,\n        minCap,\n        mpr,\n        ltv,\n        duration,\n        feePercentage,\n        broker);\n    }\n\n}\n\n\n\n",
  "sourcePath": "/home/leolower/www/protofire/portfolio-balancer/Investment-Liquidity-Pool/contracts/InvestmentLiquidityPool.sol",
  "compiler": {
    "name": "solc",
    "version": "0.5.0+commit.1d4f565a.Emscripten.clang"
  },
  "schemaVersion": "3.0.2",
  "updatedAt": "2019-02-16T17:39:57.666Z",
  "devdoc": {
    "author": "Anibal Catalán <anibalcatalanf@gmail.com>",
    "methods": {},
    "title": "Investment Liquidity Pool."
  },
  "userdoc": {
    "methods": {},
    "notice": "Pool that gather liquidity tokens to be invest on loans by a broker."
  }
}