{
  "contractName": "InvestmentLiquidityPool",
  "abi": [
    {
      "constant": true,
      "inputs": [],
      "name": "liquidityPercentage",
      "outputs": [
        {
          "name": "",
          "type": "uint256"
        }
      ],
      "payable": false,
      "stateMutability": "view",
      "type": "function",
      "signature": "0x048b87ba"
    },
    {
      "constant": true,
      "inputs": [],
      "name": "duration",
      "outputs": [
        {
          "name": "",
          "type": "uint256"
        }
      ],
      "payable": false,
      "stateMutability": "view",
      "type": "function",
      "signature": "0x0fb5a6b4"
    },
    {
      "constant": true,
      "inputs": [
        {
          "name": "",
          "type": "address"
        }
      ],
      "name": "subscriptorIndex",
      "outputs": [
        {
          "name": "",
          "type": "uint256"
        }
      ],
      "payable": false,
      "stateMutability": "view",
      "type": "function",
      "signature": "0x2eb81a08"
    },
    {
      "constant": true,
      "inputs": [
        {
          "name": "",
          "type": "uint256"
        }
      ],
      "name": "subscriptors",
      "outputs": [
        {
          "name": "",
          "type": "address"
        }
      ],
      "payable": false,
      "stateMutability": "view",
      "type": "function",
      "signature": "0x3c2fee93"
    },
    {
      "constant": true,
      "inputs": [
        {
          "name": "",
          "type": "address"
        }
      ],
      "name": "amountInvested",
      "outputs": [
        {
          "name": "",
          "type": "uint256"
        }
      ],
      "payable": false,
      "stateMutability": "view",
      "type": "function",
      "signature": "0x3c3d3af6"
    },
    {
      "constant": true,
      "inputs": [],
      "name": "minCap",
      "outputs": [
        {
          "name": "",
          "type": "uint256"
        }
      ],
      "payable": false,
      "stateMutability": "view",
      "type": "function",
      "signature": "0x3fa615b0"
    },
    {
      "constant": true,
      "inputs": [],
      "name": "liquidityToken",
      "outputs": [
        {
          "name": "",
          "type": "address"
        }
      ],
      "payable": false,
      "stateMutability": "view",
      "type": "function",
      "signature": "0x43cd8f7e"
    },
    {
      "constant": true,
      "inputs": [],
      "name": "subscriptorsLimit",
      "outputs": [
        {
          "name": "",
          "type": "uint256"
        }
      ],
      "payable": false,
      "stateMutability": "view",
      "type": "function",
      "signature": "0x6699fec3"
    },
    {
      "constant": true,
      "inputs": [],
      "name": "mpr",
      "outputs": [
        {
          "name": "",
          "type": "uint256"
        }
      ],
      "payable": false,
      "stateMutability": "view",
      "type": "function",
      "signature": "0x66ad25be"
    },
    {
      "constant": true,
      "inputs": [],
      "name": "ltv",
      "outputs": [
        {
          "name": "",
          "type": "uint256"
        }
      ],
      "payable": false,
      "stateMutability": "view",
      "type": "function",
      "signature": "0x6fb49d73"
    },
    {
      "constant": true,
      "inputs": [
        {
          "name": "",
          "type": "address"
        }
      ],
      "name": "subscriptionAmount",
      "outputs": [
        {
          "name": "",
          "type": "uint256"
        }
      ],
      "payable": false,
      "stateMutability": "view",
      "type": "function",
      "signature": "0x7a2e44e5"
    },
    {
      "constant": true,
      "inputs": [],
      "name": "feePercentage",
      "outputs": [
        {
          "name": "",
          "type": "uint256"
        }
      ],
      "payable": false,
      "stateMutability": "view",
      "type": "function",
      "signature": "0xa001ecdd"
    },
    {
      "constant": true,
      "inputs": [],
      "name": "broker",
      "outputs": [
        {
          "name": "",
          "type": "address"
        }
      ],
      "payable": false,
      "stateMutability": "view",
      "type": "function",
      "signature": "0xabff0110"
    },
    {
      "constant": true,
      "inputs": [
        {
          "name": "",
          "type": "address"
        }
      ],
      "name": "subscriptionMoment",
      "outputs": [
        {
          "name": "",
          "type": "uint256"
        }
      ],
      "payable": false,
      "stateMutability": "view",
      "type": "function",
      "signature": "0xdc90ef98"
    },
    {
      "constant": true,
      "inputs": [],
      "name": "theoreticalPoolBalance",
      "outputs": [
        {
          "name": "",
          "type": "uint256"
        }
      ],
      "payable": false,
      "stateMutability": "view",
      "type": "function",
      "signature": "0xe7b18aa8"
    },
    {
      "inputs": [
        {
          "name": "_liquidityPercentage",
          "type": "uint256"
        },
        {
          "name": "_feePercentage",
          "type": "uint256"
        },
        {
          "name": "_subscriptorsLimit",
          "type": "uint256"
        },
        {
          "name": "_minCap",
          "type": "uint256"
        },
        {
          "name": "_mpr",
          "type": "uint256"
        },
        {
          "name": "_ltv",
          "type": "uint256"
        },
        {
          "name": "_duration",
          "type": "uint256"
        },
        {
          "name": "_broker",
          "type": "address"
        },
        {
          "name": "_liquidityToken",
          "type": "address"
        },
        {
          "name": "_loanLedger",
          "type": "address"
        },
        {
          "name": "_loanController",
          "type": "address"
        },
        {
          "name": "_loanProxy",
          "type": "address"
        }
      ],
      "payable": false,
      "stateMutability": "nonpayable",
      "type": "constructor",
      "signature": "constructor"
    },
    {
      "constant": false,
      "inputs": [
        {
          "name": "subscriptor",
          "type": "address"
        },
        {
          "name": "amount",
          "type": "uint256"
        }
      ],
      "name": "subscribe",
      "outputs": [],
      "payable": false,
      "stateMutability": "nonpayable",
      "type": "function",
      "signature": "0x8de69284"
    },
    {
      "constant": false,
      "inputs": [
        {
          "name": "amount",
          "type": "uint256"
        }
      ],
      "name": "withdraw",
      "outputs": [],
      "payable": false,
      "stateMutability": "nonpayable",
      "type": "function",
      "signature": "0x2e1a7d4d"
    },
    {
      "constant": false,
      "inputs": [
        {
          "name": "loanAddress",
          "type": "address"
        },
        {
          "name": "amount",
          "type": "uint128"
        }
      ],
      "name": "invest",
      "outputs": [],
      "payable": false,
      "stateMutability": "nonpayable",
      "type": "function",
      "signature": "0xc7269e1e"
    },
    {
      "constant": false,
      "inputs": [
        {
          "name": "loanAddress",
          "type": "address"
        }
      ],
      "name": "claimReturns",
      "outputs": [],
      "payable": false,
      "stateMutability": "nonpayable",
      "type": "function",
      "signature": "0x16af4453"
    },
    {
      "constant": true,
      "inputs": [
        {
          "name": "subscriptor",
          "type": "address"
        }
      ],
      "name": "balanceOf",
      "outputs": [
        {
          "name": "",
          "type": "uint256"
        }
      ],
      "payable": false,
      "stateMutability": "view",
      "type": "function",
      "signature": "0x70a08231"
    },
    {
      "constant": true,
      "inputs": [],
      "name": "showSubscriptors",
      "outputs": [
        {
          "name": "",
          "type": "address[]"
        }
      ],
      "payable": false,
      "stateMutability": "view",
      "type": "function",
      "signature": "0x4be42628"
    },
    {
      "constant": true,
      "inputs": [],
      "name": "liquidityLimit",
      "outputs": [
        {
          "name": "",
          "type": "uint256"
        }
      ],
      "payable": false,
      "stateMutability": "view",
      "type": "function",
      "signature": "0x72163715"
    },
    {
      "constant": true,
      "inputs": [],
      "name": "poolData",
      "outputs": [
        {
          "name": "",
          "type": "uint256"
        },
        {
          "name": "",
          "type": "uint256"
        },
        {
          "name": "",
          "type": "uint256"
        },
        {
          "name": "",
          "type": "uint256"
        },
        {
          "name": "",
          "type": "uint256"
        },
        {
          "name": "",
          "type": "uint256"
        },
        {
          "name": "",
          "type": "uint256"
        },
        {
          "name": "",
          "type": "uint256"
        },
        {
          "name": "",
          "type": "uint256"
        },
        {
          "name": "",
          "type": "uint256"
        },
        {
          "name": "",
          "type": "address"
        }
      ],
      "payable": false,
      "stateMutability": "view",
      "type": "function",
      "signature": "0xfee151ae"
    }
  ],
  "bytecode": "0x60806040523480156200001157600080fd5b506040516101808062001a8a83398101806040526101808110156200003557600080fd5b508051602082015160408301516060840151608085015160a086015160c087015160e08801516101008901516101208a01516101408b0151610160909b0151999a98999798969795969495939492939192909160008c108015906200009a575060648c105b15156200012e57604080517f08c379a000000000000000000000000000000000000000000000000000000000815260206004820152602a60248201527f6c69717569646974792070657263656e746167652061742073746f636b206f7560448201527f74206f662072616e676500000000000000000000000000000000000000000000606482015290519081900360840190fd5b60008b1180156200014057506127108b105b1515620001ae57604080517f08c379a000000000000000000000000000000000000000000000000000000000815260206004820152601060248201527f666565206f7574206f662072616e676500000000000000000000000000000000604482015290519081900360640190fd5b60008a118015620001bf575060158a105b15156200025357604080517f08c379a000000000000000000000000000000000000000000000000000000000815260206004820152602360248201527f6e756d626572206f66207375627363726970746f7273206f7574206f6620726160448201527f6e67650000000000000000000000000000000000000000000000000000000000606482015290519081900360840190fd5b60008811801562000265575061271088105b1515620002f857604080517f08c379a0000000000000000000000000000000000000000000000000000000008152602060048201526024808201527f6d6f6e74686c792070657263656e746167652072617465206f7574206f66207260448201527f616e676500000000000000000000000000000000000000000000000000000000606482015290519081900360840190fd5b6000871180156200030b5750620186a087105b15156200037957604080517f08c379a000000000000000000000000000000000000000000000000000000000815260206004820152601a60248201527f6c6f616e20746f2076616c7565206f7574206f662072616e6765000000000000604482015290519081900360640190fd5b600086101580156200038b5750600d86105b1515620003f957604080517f08c379a000000000000000000000000000000000000000000000000000000000815260206004820152601560248201527f6475726174696f6e206f7574206f662072616e67650000000000000000000000604482015290519081900360640190fd5b600160a060020a03851615156200047157604080517f08c379a000000000000000000000000000000000000000000000000000000000815260206004820152600e60248201527f6976616c69642061646472657373000000000000000000000000000000000000604482015290519081900360640190fd5b600160a060020a0384161515620004e957604080517f08c379a000000000000000000000000000000000000000000000000000000000815260206004820152600f60248201527f696e76616c696420616464726573730000000000000000000000000000000000604482015290519081900360640190fd5b600160a060020a03831615156200056157604080517f08c379a000000000000000000000000000000000000000000000000000000000815260206004820152600f60248201527f696e76616c696420616464726573730000000000000000000000000000000000604482015290519081900360640190fd5b600160a060020a0382161515620005d957604080517f08c379a000000000000000000000000000000000000000000000000000000000815260206004820152600f60248201527f696e76616c696420616464726573730000000000000000000000000000000000604482015290519081900360640190fd5b600160a060020a03811615156200065157604080517f08c379a000000000000000000000000000000000000000000000000000000000815260206004820152600f60248201527f696e76616c696420616464726573730000000000000000000000000000000000604482015290519081900360640190fd5b60009b8c5560019a909a55600298909855600396909655600494909455600592909255506006805462278d00029055600b8054600160a060020a0319908116600160a060020a0393841617909155600c80548216938316939093179092556008805483169382169390931790925560098054821693831693909317909255600a8054909216921691909117905561139b908190620006ef90396000f3fe6080604052600436106101325763ffffffff7c0100000000000000000000000000000000000000000000000000000000600035041663048b87ba81146101375780630fb5a6b41461015e57806316af4453146101735780632e1a7d4d146101a85780632eb81a08146101d25780633c2fee93146102055780633c3d3af61461024b5780633fa615b01461027e57806343cd8f7e146102935780634be42628146102a85780636699fec31461030d57806366ad25be146103225780636fb49d731461033757806370a082311461034c578063721637151461037f5780637a2e44e5146103945780638de69284146103c7578063a001ecdd14610400578063abff011014610415578063c7269e1e1461042a578063dc90ef9814610475578063e7b18aa8146104a8578063fee151ae146104bd575b600080fd5b34801561014357600080fd5b5061014c610531565b60408051918252519081900360200190f35b34801561016a57600080fd5b5061014c610537565b34801561017f57600080fd5b506101a66004803603602081101561019657600080fd5b5035600160a060020a031661053d565b005b3480156101b457600080fd5b506101a6600480360360208110156101cb57600080fd5b50356106c8565b3480156101de57600080fd5b5061014c600480360360208110156101f557600080fd5b5035600160a060020a0316610b25565b34801561021157600080fd5b5061022f6004803603602081101561022857600080fd5b5035610b37565b60408051600160a060020a039092168252519081900360200190f35b34801561025757600080fd5b5061014c6004803603602081101561026e57600080fd5b5035600160a060020a0316610b5f565b34801561028a57600080fd5b5061014c610b71565b34801561029f57600080fd5b5061022f610b77565b3480156102b457600080fd5b506102bd610b86565b60408051602080825283518183015283519192839290830191858101910280838360005b838110156102f95781810151838201526020016102e1565b505050509050019250505060405180910390f35b34801561031957600080fd5b5061014c610be9565b34801561032e57600080fd5b5061014c610bef565b34801561034357600080fd5b5061014c610bf5565b34801561035857600080fd5b5061014c6004803603602081101561036f57600080fd5b5035600160a060020a0316610bfb565b34801561038b57600080fd5b5061014c610c16565b3480156103a057600080fd5b5061014c600480360360208110156103b757600080fd5b5035600160a060020a0316610c45565b3480156103d357600080fd5b506101a6600480360360408110156103ea57600080fd5b50600160a060020a038135169060200135610c57565b34801561040c57600080fd5b5061014c610fe8565b34801561042157600080fd5b5061022f610fee565b34801561043657600080fd5b506101a66004803603604081101561044d57600080fd5b508035600160a060020a031690602001356fffffffffffffffffffffffffffffffff16610ffd565b34801561048157600080fd5b5061014c6004803603602081101561049857600080fd5b5035600160a060020a0316611186565b3480156104b457600080fd5b5061014c611198565b3480156104c957600080fd5b506104d261119e565b604080519b8c5260208c019a909a528a8a019890985260608a0196909652608089019490945260a088019290925260c087015260e0860152610100850152610120840152600160a060020a031661014083015251908190036101600190f35b60005481565b60065481565b600854604080517fa998fdbe000000000000000000000000000000000000000000000000000000008152600160a060020a0384811660048301523060248301529151600093929092169163a998fdbe91604480820192602092909190829003018186803b1580156105ad57600080fd5b505afa1580156105c1573d6000803e3d6000fd5b505050506040513d60208110156105d757600080fd5b5051905060006fffffffffffffffffffffffffffffffff821611610645576040805160e560020a62461bcd02815260206004820152601060248201527f6e6f7468696e6720746f20636c61696d00000000000000000000000000000000604482015290519081900360640190fd5b600954604080517f591ba56d000000000000000000000000000000000000000000000000000000008152600160a060020a0385811660048301529151919092169163591ba56d91602480830192600092919082900301818387803b1580156106ac57600080fd5b505af11580156106c0573d6000803e3d6000fd5b505050505050565b6106e0816106d4610c16565b9063ffffffff6112a916565b600c54604080517f70a082310000000000000000000000000000000000000000000000000000000081523060048201529051600160a060020a03909216916370a0823191602480820192602092909190829003018186803b15801561074457600080fd5b505afa158015610758573d6000803e3d6000fd5b505050506040513d602081101561076e57600080fd5b5051116107c5576040805160e560020a62461bcd02815260206004820152601660248201527f696e73756666696369656e74206c697175696469747900000000000000000000604482015290519081900360640190fd5b6000811180156107e45750336000908152600e60205260409020548111155b1515610860576040805160e560020a62461bcd02815260206004820152602160248201527f696e73756666696369656e7420737562736372697074696f6e2062616c616e6360448201527f6500000000000000000000000000000000000000000000000000000000000000606482015290519081900360840190fd5b600654336000908152600f60205260409020546108829163ffffffff6112a916565b42116108d8576040805160e560020a62461bcd02815260206004820152601160248201527f63616e206e6f7420776974686472617720000000000000000000000000000000604482015290519081900360640190fd5b600354336000908152600e60205260408120549091906108fe908463ffffffff6112c416565b111561095157600754610917908363ffffffff6112c416565b600755336000908152600e602052604090205461093a908363ffffffff6112c416565b336000908152600e60205260409020555080610a32565b336000908152600e6020526040902054600754610974908263ffffffff6112c416565b600755336000908152600e6020526040812055600d8054610999826000198301611328565b815481106109a357fe5b60009182526020808320909101543383526010909152604090912054600d8054600160a060020a039093169290919081106109da57fe5b6000918252602090912001805473ffffffffffffffffffffffffffffffffffffffff1916600160a060020a0392909216919091179055600d805490610a23906000198301611328565b610a2e600d82611328565b5090505b600c54604080517fa9059cbb000000000000000000000000000000000000000000000000000000008152336004820152602481018490529051600160a060020a039092169163a9059cbb916044808201926020929091908290030181600087803b158015610a9f57600080fd5b505af1158015610ab3573d6000803e3d6000fd5b505050506040513d6020811015610ac957600080fd5b50511515610b21576040805160e560020a62461bcd02815260206004820152600d60248201527f7472616e73666572206661696c00000000000000000000000000000000000000604482015290519081900360640190fd5b5050565b60106020526000908152604090205481565b600d805482908110610b4557fe5b600091825260209091200154600160a060020a0316905081565b60116020526000908152604090205481565b60035481565b600c54600160a060020a031681565b6060600d805480602002602001604051908101604052809291908181526020018280548015610bde57602002820191906000526020600020905b8154600160a060020a03168152600190910190602001808311610bc0575b505050505090505b90565b60025481565b60045481565b60055481565b600160a060020a03166000908152600e602052604090205490565b6000610c406064610c346000546007546112d990919063ffffffff16565b9063ffffffff61130416565b905090565b600e6020526000908152604090205481565b600c54604080517fdd62ed3e000000000000000000000000000000000000000000000000000000008152600160a060020a0385811660048301523060248301529151919092169163dd62ed3e916044808301926020929190829003018186803b158015610cc357600080fd5b505afa158015610cd7573d6000803e3d6000fd5b505050506040513d6020811015610ced57600080fd5b5051811115610d6c576040805160e560020a62461bcd02815260206004820152603360248201527f696e73756666696369656e7420616d6f756e74206f66206c697175646969747960448201527f20746f6b656e732061726520616c6c6f77656400000000000000000000000000606482015290519081900360840190fd5b600160a060020a0382166000908152600e60205260409020541515610e4057600254600d5410610de6576040805160e560020a62461bcd02815260206004820152601560248201527f7375627363726970746f7273206172652066756c6c0000000000000000000000604482015290519081900360640190fd5b600354811015610e40576040805160e560020a62461bcd02815260206004820152601360248201527f696e73756666696369656e7420616d6f756e7400000000000000000000000000604482015290519081900360640190fd5b600754610e53908263ffffffff6112a916565b600755600d8054600160a060020a0384166000818152601060209081526040808320859055600185019095557fd7b6990105719101dabeb77144f2a3385c8033acd3af97e9423a695e81ad1eb5909301805473ffffffffffffffffffffffffffffffffffffffff1916909217909155600f8252828120429055600e9091522054610edd90826112a9565b600160a060020a038084166000818152600e6020908152604080832095909555600c5485517f23b872dd000000000000000000000000000000000000000000000000000000008152600481019490945230602485015260448401879052945194909316936323b872dd936064808501949193918390030190829087803b158015610f6657600080fd5b505af1158015610f7a573d6000803e3d6000fd5b505050506040513d6020811015610f9057600080fd5b50511515610b21576040805160e560020a62461bcd02815260206004820152601260248201527f7472616e736665722066726f6d206661696c0000000000000000000000000000604482015290519081900360640190fd5b60015481565b600b54600160a060020a031681565b600c54600a54604080517f095ea7b3000000000000000000000000000000000000000000000000000000008152600160a060020a0392831660048201526fffffffffffffffffffffffffffffffff851660248201529051919092169163095ea7b39160448083019260209291908290030181600087803b15801561108057600080fd5b505af1158015611094573d6000803e3d6000fd5b505050506040513d60208110156110aa57600080fd5b50511515611102576040805160e560020a62461bcd02815260206004820152600f60248201527f696e76616c696420617070726f76650000000000000000000000000000000000604482015290519081900360640190fd5b600954604080517fcc381c33000000000000000000000000000000000000000000000000000000008152600160a060020a0385811660048301526000602483018190526fffffffffffffffffffffffffffffffff86166044840152925193169263cc381c339260648084019391929182900301818387803b1580156106ac57600080fd5b600f6020526000908152604090205481565b60075481565b600d54600754600c54604080517f70a08231000000000000000000000000000000000000000000000000000000008152306004820152905160009485948594859485948594859485948594859485949392600160a060020a0316916370a08231916024808301926020929190829003018186803b15801561121e57600080fd5b505afa158015611232573d6000803e3d6000fd5b505050506040513d602081101561124857600080fd5b810190808051906020019092919050505060005483600254600354600454600554600654600154600b60009054906101000a9004600160a060020a03169b509b509b509b509b509b509b509b509b509b509b5050909192939495969798999a565b6000828201838110156112bb57600080fd5b90505b92915050565b6000828211156112d357600080fd5b50900390565b60008215156112ea575060006112be565b8282028284828115156112f957fe5b04146112bb57600080fd5b600080821161131257600080fd5b6000828481151561131f57fe5b04949350505050565b81548183558181111561134c5760008381526020902061134c918101908301611351565b505050565b610be691905b8082111561136b5760008155600101611357565b509056fea165627a7a72305820dbb0a12cc7804f855bc969f16794ef5feef63bf38c9ebc81dce208100af1b47f0029",
  "source": "pragma solidity 0.5.0;\n\nimport \"openzeppelin-solidity/contracts/math/SafeMath.sol\";\nimport \"openzeppelin-solidity/contracts/token/ERC20/IERC20.sol\";\nimport \"./IFundableController.sol\";\nimport \"./ILoansLedger.sol\";\n\n\n/**\n * @title Investment Liquidity Pool.\n * @notice Pool that gather liquidity tokens to be invest on loans by a broker.\n * @author Anibal Catalán <anibalcatalanf@gmail.com>\n */\ncontract InvestmentLiquidityPool {\n    using SafeMath for uint256;\n\n    uint256 public liquidityPercentage;\n    uint256 public feePercentage;\n    uint256 public subscriptorsLimit;\n    uint256 public minCap;\n    uint256 public mpr;\n    uint256 public ltv;\n    uint256 public duration;\n    uint256 public theoreticalPoolBalance;\n    \n    address private loanLedger;\n    address private loanController;\n    address private loanProxy;\n    \n    address public broker;\n    address public liquidityToken;\n    address[] public subscriptors;\n\n    mapping(address => uint256) public subscriptionAmount; //subscriptor->amount\n    mapping(address => uint256) public subscriptionMoment; //subscriptor->subscriptionTimestamp\n    mapping(address => uint256) public subscriptorIndex; // subscriptor->arrayIndex\n\n    mapping(address => uint256) public amountInvested; // loanContract->amount   \n    \n    constructor(\n        uint256 _liquidityPercentage,\n        uint256 _feePercentage,\n        uint256 _subscriptorsLimit,\n        uint256 _minCap,\n        uint256 _mpr,\n        uint256 _ltv,\n        uint256 _duration,\n        address _broker,\n        address _liquidityToken,\n        address _loanLedger,\n        address _loanController,\n        address _loanProxy\n    ) public {\n        require(_liquidityPercentage >= 0 && _liquidityPercentage < 100, \"liquidity percentage at stock out of range\");\n        require(_feePercentage > 0 && _feePercentage < 10000, \"fee out of range\");\n        require(_subscriptorsLimit > 0 && _subscriptorsLimit < 21, \"number of subscriptors out of range\");\n        require(_mpr > 0 && _mpr < 10000, \"monthly percentage rate out of range\");\n        require(_ltv > 0 && _ltv < 100000, \"loan to value out of range\");\n        require(_duration >= 0 && _duration < 13, \"duration out of range\");\n        require(_broker != address(0), \"ivalid address\");\n        require(_liquidityToken != address(0), \"invalid address\");\n        require(_loanLedger != address(0), \"invalid address\");\n        require(_loanController != address(0), \"invalid address\");\n        require(_loanProxy != address(0), \"invalid address\");\n\n        liquidityPercentage = _liquidityPercentage;        \n        feePercentage = _feePercentage;\n        subscriptorsLimit = _subscriptorsLimit;\n        minCap = _minCap;\n        mpr = _mpr;\n        ltv = _ltv;\n        duration = duration * 30 days;\n\n        broker = _broker;\n        liquidityToken = _liquidityToken;\n\n        loanLedger = _loanLedger;\n        loanController = _loanController;\n        loanProxy = _loanProxy;\n    }\n    \n    function subscribe(address subscriptor, uint256 amount) public {\n        require(amount <= IERC20(liquidityToken).allowance(subscriptor, address(this)), \"insufficient amount of liqudiity tokens are allowed\");\n        \n        if (subscriptionAmount[subscriptor] == 0) {\n            require(subscriptors.length < subscriptorsLimit, \"subscriptors are full\");\n            require(amount >= minCap, \"insufficient amount\");\n        }\n        \n        theoreticalPoolBalance = theoreticalPoolBalance.add(amount);\n        subscriptorIndex[subscriptor] = subscriptors.length;\n        subscriptors.push(subscriptor);\n        subscriptionMoment[subscriptor] = now;\n        subscriptionAmount[subscriptor] = subscriptionAmount[subscriptor].add(amount);\n\n        require(IERC20(liquidityToken).transferFrom(subscriptor, address(this), amount), \"transfer from fail\");\n    }\n\n    function withdraw(uint256 amount) public {\n        require(\n            IERC20(liquidityToken).balanceOf(address(this)) > \n            liquidityLimit().add(amount),\n            \"insufficient liquidity\");\n        require(amount > 0 && subscriptionAmount[msg.sender] >= amount, \"insufficient subscription balance\");\n        require(now > subscriptionMoment[msg.sender].add(duration), \"can not withdraw \");\n\n        uint256 transferAmount;\n        \n        if (subscriptionAmount[msg.sender].sub(amount) > minCap) {\n            theoreticalPoolBalance = theoreticalPoolBalance.sub(amount);\n            subscriptionAmount[msg.sender] = subscriptionAmount[msg.sender].sub(amount);\n            transferAmount = amount;  \n        } else {\n            uint256 subscriptorBalance = subscriptionAmount[msg.sender];\n            theoreticalPoolBalance = theoreticalPoolBalance.sub(subscriptorBalance);\n            subscriptionAmount[msg.sender] = 0;\n            subscriptors[subscriptorIndex[msg.sender]] = subscriptors[subscriptors.length--];\n            subscriptors.length = subscriptors.length--;\n            transferAmount = subscriptorBalance;\n        }\n\n        require(IERC20(liquidityToken).transfer(msg.sender, transferAmount), \"transfer fail\");\n    }\n    \n    function invest(address loanAddress, uint128 amount) public {\n        //require(msg.sender == broker, \"msg.sender is not the broker\");\n        //require(IERC20(liquidityToken).balanceOf(address(this)).sub(amount) >= liquidityLimit(), \"insufficient liquidity\");\n        //require(ILoansLedger(loanLedger).isFundingContributionValid(loanAddress, address(this), amount), \"invalid contribution\");\n\n        //(uint256 loanAmount, uint256 installmentAmount, , , , , , , , uint8 currentState, uint8 installmentCount, ,)\n        //= ILoansLedger(loanLedger).getLoanData(loanAddress);\n        \n        // TODO: validate duration\n        //require(installmentsCount <= duration.div(30 * days), \"loan duration too long\");\n        //require(interestRate(loanAmount, installmentAmount, installmentCount) >= mpr, \"insufficient interest rate\");\n        // TODO: validate LTV: need collateral/USD price\n        //require(currentState == 4, \"loan is not in funding state\");\n\n        require(IERC20(liquidityToken).approve(loanProxy, amount), \"invalid approve\");\n        \n        //(bool success, bytes memory data) = address(other).call(\"f\");\n        //if (!success)\n        //revert();\n\n        IFundableController(loanController).fund(loanAddress, 0, amount);\n\n        //amountInvested[loanAddress] = amountInvested[loanAddress].add(amount);\n    }\n\n    function claimReturns(address loanAddress) public {\n        //require(msg.sender == broker);\n\n        uint128 results = ILoansLedger(loanLedger).getWithdrawAmount(loanAddress, address(this));\n        require(results > 0, \"nothing to claim\");\n\n        IFundableController(loanController).withdrawLenderPendingAmount(loanAddress);\n\n        // TODO: split result by capital return and interest earns\n        // TODO: send fees to broker\n        \n        //distributeResults(results);\n    }\n\n    function balanceOf(address subscriptor) public view returns (uint256) {\n        return subscriptionAmount[subscriptor];\n    }\n\n    function showSubscriptors() public view returns(address[] memory) {\n        return subscriptors;\n    }\n\n    function liquidityLimit() public view returns(uint256) {\n        return (theoreticalPoolBalance.mul(liquidityPercentage).div(100));\n    }\n\n    function poolData() public view returns (\n        uint256,\n        uint256,\n        uint256,\n        uint256,\n        uint256,\n        uint256,\n        uint256,\n        uint256,\n        uint256,\n        uint256,\n        address) \n    {\n        uint256 numOfSubscriptors = subscriptors.length;\n        return ( \n        theoreticalPoolBalance,\n        IERC20(liquidityToken).balanceOf(address(this)),\n        liquidityPercentage, \n        numOfSubscriptors,\n        subscriptorsLimit,\n        minCap,\n        mpr,\n        ltv,\n        duration,\n        feePercentage,\n        broker);\n    }\n\n    function distributeResults(uint256 results) internal {\n        uint256 amountSplitted;\n        for (uint8 i; i < subscriptorsLimit; i++) {\n            uint256 earns = subscriptionAmount[subscriptors[i]].mul(100).mul(results).div(theoreticalPoolBalance);\n            amountSplitted = amountSplitted.add(earns);\n            subscriptionAmount[subscriptors[i]] = subscriptionAmount[subscriptors[i]].add(earns);\n        }\n        if (amountSplitted < results) {\n            subscriptionAmount[subscriptors[0]] = subscriptionAmount[subscriptors[0]].add(results.sub(amountSplitted));\n        }\n    }\n\n    function interestRate(uint256 loanAmount, uint256 installmentAmount, uint256 installmentCount) internal pure returns (uint256) {\n        uint256 a = installmentCount.mul(installmentCount).sub(1).mul(loanAmount);\n        uint256 b = installmentCount.add(1).mul(loanAmount).mul(6);\n        uint256 c = installmentAmount.mul(installmentCount).sub(loanAmount).mul(12);\n        \n        return sqrt(b.mul(b).add((a).mul(c).mul(4))).sub(b).mul(10000).div(a.mul(2));\n    }\n\n    function sqrt(uint256 x) internal pure returns (uint256 y) {\n        uint256 z = (x + 1) / 2;\n        y = x;\n        while (z < y) {\n            y = z;\n            z = (x / z + z) / 2;\n        }\n    }\n\n}\n",
  "sourcePath": "/home/leolower/www/protofire/portfolio-balancer/Investment-Liquidity-Pool/contracts/InvestmentLiquidityPool.sol",
  "compiler": {
    "name": "solc",
    "version": "0.5.0+commit.1d4f565a.Emscripten.clang"
  },
  "schemaVersion": "3.0.2",
  "updatedAt": "2019-02-17T06:58:02.065Z",
  "devdoc": {
    "author": "Anibal Catalán <anibalcatalanf@gmail.com>",
    "methods": {},
    "title": "Investment Liquidity Pool."
  },
  "userdoc": {
    "methods": {},
    "notice": "Pool that gather liquidity tokens to be invest on loans by a broker."
  }
}